:100000000C94EC000C9414010C9414010C94140145
:100010000C9414010C9414010C9414010C9414010C
:100020000C9414010C9414010C944C060C94BE0610
:100030000C9414010C9414010C9414010C941401EC
:100040000C9414010C9414010C9414010C941401DC
:100050000C9414010C9414010C9414010C94F702E8
:100060000C9414010C9414010C9414010C941401BC
:100070000C9414010C9414010C9414010C941401AC
:100080000C9414010C9414010C9414010C9414019C
:100090000C9441030C9414010C9414010C9414015D
:1000A0000C9414010C9414010C9414016C016F0154
:1000B0005E01620166019001900190017301770178
:1000C0007B018101850190018B0100000002000984
:1000D0000F0000030401000C0000000000000000FD
:1000E00000000000000000000000000000250028C3
:1000F000002B002E00310000000000240027002A01
:10010000002D00300004040404040304050202026C
:1001100002040302020202060606060606040402A0
:1001200002020404040802011040804010204080B4
:10013000408008020401804020100201108010203D
:10014000404020070605040100080A0B0C0D0908B1
:100150000B0002020201000904000001020200007B
:1001600005240010010524010101042402060524D0
:100170000600010705810310004009040100020A7E
:10018000000000070502024000000705830240004E
:10019000000403090441726475696E6F204C4C437E
:1001A0000041726475696E6F204C656F6E61726498
:1001B0006F00120100020000004041233680000160
:1001C0000102030112010002EF02014041233680C7
:1001D000000101020301320B11241FBECFEFDAE050
:1001E000DEBFCDBF22E0AEE3B1E001C01D92A0367C
:1001F000B207E1F711E0A0E0B1E0E8E9FAE102C0FE
:1002000005900D92AE33B107D9F710E0CCEED0E0F7
:1002100004C02197FE010E94530BCB3ED107C9F7C2
:100220000E94FB080C944A0D0C940000CF92DF92C0
:10023000EF92FF920F931F93CF93DF936C017A019C
:100240008B01C0E0D0E0CE15DF0589F0D8016D91BB
:100250008D01D601ED91FC910190F081E02DC60158
:100260000995892B11F47E0102C02196ECCFC701BC
:10027000DF91CF911F910F91FF90EF90DF90CF9082
:100280000895362F90E0FC01E653FF4F4491FC01A6
:10029000EC5DFE4F2491FC01EB5FFE4F84918823BF
:1002A00009F451C04423E1F150E0FA013197EF30F5
:1002B000F105B0F5EA5AFF4F0C94530B9091800072
:1002C0009F7707C0909180009F7D03C09091800030
:1002D000977F9093800024C094B59F7702C094B517
:1002E0009F7D94BD1DC0909190009F7707C0909115
:1002F00090009F7D03C090919000977F9093900015
:100300000FC09091C0009F7703C09091C0009F7D67
:100310009093C00005C09091C200977F9093C20057
:10032000E82FF0E0EE0FFF1FE751FF4FA591B491CA
:100330008FB7F894EC91311103C020952E2301C0A2
:100340002E2B2C938FBF08953FB7F89480918A018C
:1003500090918B01A0918C01B0918D0126B5A89B45
:1003600005C02F3F19F00196A11DB11D3FBFBA2F47
:10037000A92F982F8827820F911DA11DB11DBC01A7
:10038000CD0142E0660F771F881F991F4A95D1F76C
:10039000089585ED8093BC008091BC0084FDFCCF66
:1003A0001092B601089540916001262F30E0240F8D
:1003B000311D21323105DCF42091B6012430C9F41D
:1003C000FC0180E090E0861758F4309160012191A3
:1003D000DC01A25CBE4FA30FB11D2C930196F3CF9D
:1003E00080916001680F6093600180E0089581E072
:1003F000089582E00895089581E090E030918F01A2
:1004000020918E01321710F480E090E09195819553
:100410009109089580918F0190918E01891730F490
:100420008F5F80938F0180E090E008958FEF9FEFC2
:10043000089580918E0190E020918F01821B910997
:100440000895CF92DF92EF92FF920F931F93CF9375
:10045000DF937C01262F972F8A018091DA01882370
:1004600091F0C62FD72F6E01C40ED51ECC15DD0519
:1004700071F06991D701ED91FC910190F081E02D2F
:10048000C7010995F3CF642F822F0E94D301C801C1
:10049000DF91CF911F910F91FF90EF90DF90CF9060
:1004A0000895CF93DF931F92CDB7DEB76983209174
:1004B000DA012223D1F02091D701203240F021E04F
:1004C00030E0FC013383228380E090E015C080910E
:1004D000D801E82FF0E0E954FE4F998190838F5FB7
:1004E0008093D8018093D70105C061E0CE010196C9
:1004F0000E94D30181E090E00F90DF91CF910895A9
:100500000E94860C4091EB015091EC012091E90191
:100510003091EA0142175307B4F49091E8009570C6
:10052000E1F39091E80092FD19C08093F100809171
:10053000EB019091EC0101968F739927892B19F4A7
:100540008EEF8093E8008091EB019091EC01019691
:100550009093EC018093EB0181E0089580E0089591
:10056000615030F02091F100FC0120830196F8CF1A
:10057000289884E68093F00108958F929F92AF921D
:10058000BF92CF92DF92EF92FF926B017C010E94AB
:10059000A4014B015C01C114D104E104F104F1F0A8
:1005A0000E94A401DC01CB0188199909AA09BB09A1
:1005B000883E9340A105B10570F321E0C21AD1082D
:1005C000E108F10888EE880E83E0981EA11CB11C9A
:1005D000C114D104E104F10419F7DDCFFF90EF90CD
:1005E000DF90CF90BF90AF909F908F9008951F9213
:1005F0000F920FB60F9211242F933F938F939F93D7
:10060000AF93BF938091860190918701A09188015B
:10061000B09189013091850123E0230F2D3720F41B
:100620000196A11DB11D05C026E8230F0296A11D4C
:10063000B11D209385018093860190938701A0933B
:100640008801B093890180918A0190918B01A091DA
:100650008C01B0918D010196A11DB11D80938A017D
:1006600090938B01A0938C01B0938D01BF91AF91BA
:100670009F918F913F912F910F900FBE0F901F90E0
:1006800018951F920F920FB60F9211242F933F933C
:100690004F935F936F937F938F939F93AF93BF938A
:1006A000EF93FF938091B900887F803609F49CC056
:1006B00068F5883209F45BC090F4803109F454C0C5
:1006C00038F4882309F4F6C0883009F44DC0F6C028
:1006D000883109F44CC0803209F45DC0EFC0803429
:1006E00009F468C048F4803309F455C0883309F030
:1006F000E5C08093B401D8C0803509F44FC0883577
:1007000009F45DC0883409F0D9C0D6C0883909F42D
:10071000C7C0A8F4883709F467C038F4883609F4EC
:1007200063C0803709F460C0C9C0883809F4B8C014
:10073000803909F45FC0803809F0C0C05BC0803BDD
:1007400009F486C038F4803A09F466C0883A09F49E
:100750007FC0B4C0803C09F4A7C0883C09F4A4C0A1
:10076000883B09F48AC0AAC08091910110C0909181
:10077000B3018091B201981770F5E091B30181E067
:100780008E0F8093B301F0E0EE56FE4F8081809390
:10079000BB0085EC86C08093B4018EC0E091B301AC
:1007A00081E08E0F8093B3018091BB00F0E0EE56A4
:1007B000FE4F80839091B3018091B2016EC0E091B1
:1007C000B30181E08E0F8093B3018091BB00F0E014
:1007D000EE56FE4F80838091B50181116DC081E09E
:1007E0008093900184EA61C083E08093B601109207
:1007F0008401CFCF80918401803208F051C0E09114
:10080000840181E08E0F809384018091BB00F0E031
:10081000EC59FE4F8083BDCF85EC8093BC001092D5
:10082000B60180918401803230F4E0918401F0E0DF
:10083000EC59FE4F10826091840170E0E0916201FA
:10084000F091630184E691E009951092840136C02D
:1008500084E08093B6011092610110926001E091F2
:100860005E01F0915F01099580916001811105C0E1
:1008700081E08093600110923E01E091610181E08E
:100880008E0F80936101F0E0E25CFE4F80818093E7
:10089000BB009091610180916001981708F479CFB5
:1008A00085E88093BC000AC085EC8093BC00109260
:1008B000B60104C01092B4010E94C901FF91EF91EA
:1008C000BF91AF919F918F917F916F915F914F9168
:1008D0003F912F910F900FBE0F901F901895FC0124
:1008E0008091F101811103C08FEF9FEF08959FB7B1
:1008F000F89482E08093E9002091F20030E0121633
:10090000130614F421E030E02115310559F0289840
:1009100084E68093F0018091F10080838091F20061
:10092000882319F09FBFC90108958BE68093E800E2
:10093000F9CF8091040281110DC082E08093000202
:1009400084E080930102109203021092020281E07F
:100950008093040280E092E00895CF93DF931F928A
:10096000CDB7DEB76983DC01ED91FC910280F381A4
:10097000E02D41E050E0BE016F5F7F4F09950F9081
:10098000DF91CF91089583E08093E9008091F20098
:10099000882319F08AE38093E8000895CF93DF93CA
:1009A0001F92CDB7DEB7FC018485958597FD05C004
:1009B0002FEF3FEF358724870BC0CE0101960E94B1
:1009C0006F04019719F4898190E002C08FEF9FEFC7
:1009D0000F90DF91CF9108950F931F93CF93DF93E3
:1009E0001F92CDB7DEB78C01FC018485958597FFFA
:1009F0000EC0CE0101960E946F04019719F429815F
:100A000030E002C02FEF3FEFF80135872487F8016F
:100A1000848595850F90DF91CF911F910F91089557
:100A2000FC018485958597FD0BC09FB7F89482E003
:100A30008093E9008091F2009FBF90E001960895B5
:100A40009FB7F89482E08093E9008091F2009FBF05
:100A500090E008958F929F92AF92BF92CF92DF92D3
:100A6000EF92FF920F931F93CF93DF935C016B0183
:100A70008A0180910B01882309F45EC08091F10105
:100A8000882309F459C08091EF0180FF05C080914F
:100A9000E00082608093E000E8018AEFF82E93E0A6
:100AA000E92E2FE3822E3AE3932E209709F43DC0DE
:100AB0008FB7F894E092E9009091E80095FF06C0A6
:100AC0009091F200282D291B922F01C090E08FBF3A
:100AD00091110AC0FA94FF2079F161E070E080E0A2
:100AE00090E00E94BD02E1CF292F30E0C217D3076A
:100AF0000CF49C2F8FB7F894E092E9002091E80065
:100B000025FF11C0292F30E0C21BD30BF6019150F5
:100B100020F041914093F100FACFC20ED31E909184
:100B2000E80095FF13C08FBFC0CF5D9884E6809327
:100B3000FF011016110644F081E090E0F501938367
:100B4000828380E090E005C0C80103C09092E80075
:100B5000EACFDF91CF911F910F91FF90EF90DF903F
:100B6000CF90BF90AF909F908F900895CF92DF92DB
:100B7000EF92FF920F931F93CF93DF931F92CDB706
:100B8000DEB7182F062FE42E862F880F8E5F9983ED
:100B90000E94820283E00E948202F12EC12E99817E
:100BA000D92E8C2D8F19801798F4F601E7FE02C01C
:100BB000849101C080810E948202182F80E00E94EF
:100BC00082028123FFEFCF1ADF0A8111EACF01C031
:100BD00081E00F90DF91CF911F910F91FF90EF90E7
:100BE000DF90CF900895DF92EF92FF920F931F93C3
:100BF000CF93DF93D82E8A017B01E40EF51EEB0123
:100C0000CE15DF0571F0D7FE03C0FE01849101C04F
:100C100088810E94820221968111F2CF8FEF9FEF8F
:100C200001C0C801DF91CF911F910F91FF90EF900C
:100C3000DF9008950F931F93CF93DF931F92CDB74B
:100C4000DEB782E0898342E450E06FE471E080E83F
:100C50000E94F3050E949904DC0112960D911C91EB
:100C600013970115110569F0D801ED91FC910280EF
:100C7000F381E02DBE016F5F7F4FC801099597FF9B
:100C800007C089810F90DF91CF911F910F91089537
:100C9000F80100851185E5CF1F920F920FB60F92D4
:100CA00011248F939F938091E1009091E100937FB5
:100CB0009093E10083FF0FC01092E90091E09093C0
:100CC000EB001092EC0092E39093ED001092F10192
:100CD00098E09093F00082FF20C093E09093E900A9
:100CE0009091F200992319F09AE39093E800909183
:100CF000FF01992339F09091FF0191509093FF01EA
:100D0000992389F19091F001992339F09091F001A4
:100D100091509093F001992341F184FF10C080918C
:100D2000E2008E7E81608093E2008091E1008F7E00
:100D30008093E1008091EF018E7E806111C080FF81
:100D400016C08091E2008E7E80618093E2008091E7
:100D5000E1008E7E8093E1008091EF018E7E8160C4
:100D60008093EF0104C05D9ACDCF289AD6CF9F9192
:100D70008F910F900FBE0F901F9018951F920F929A
:100D80000FB60F921124CF92DF92EF92FF920F9342
:100D90001F932F933F934F935F936F937F938F9303
:100DA0009F93AF93BF93EF93FF93CF93DF93CDB711
:100DB000DEB76C97DEBFCDBF1092E9008091E800EE
:100DC00083FFFAC168E0CE0145960E94B00282EF2F
:100DD0008093E8008D8987FF05C09091E80090FF1F
:100DE000FCCF03C09EEF9093E800982F907609F017
:100DF000C6C09E892F89188D91110CC0803829F4A6
:100E00008091EE018093F10002C01092F1001092E7
:100E1000F10047C1422F50E0512B913051F4811124
:100E200040C14130510509F03CC18091EE018D7FF8
:100E30000BC0933061F4811134C14130510509F088
:100E400030C18091EE0182608093EE012AC195301D
:100E500041F48091E80080FFFCCF20682093E300FC
:100E600020C1963009F05FC0EB8CFC8C1092E90039
:100E70001092EC011092EB01123091F51092EA0100
:100E80001092E9010E941A0699E0BE016F5F7F4F40
:100E9000DB01E92F1D92EA95E9F799831A8391E026
:100EA0009E8390EA98879AEF99872091EB01309181
:100EB000EC01275F3F4F3C832B838D831092E90029
:100EC0001092EC011092EB01F092EA01E092E9013C
:100ED00049E050E080E00E94F3050E941A06E1C05C
:100EE000F092EA01E092E9010E949904DC01129675
:100EF000ED90FC901397E114F10409F4C0C0D70100
:100F0000ED91FC910480F581E02DBE016B5E7F4F79
:100F1000C7010995009719F00CF0C3C0C6C0F701CE
:100F2000E084F184E8CF973009F4BFC0983021F411
:100F300081E08093F100B5C0993009F0B2C08370B0
:100F400009F0B3C0E7E1F1E081E021E036E3908110
:100F5000992361F08093E9002093EB0091919093A5
:100F6000EC003093ED008F5F873089F78EE7809338
:100F7000EA001092EA008F898093F10192C08B8D74
:100F80009C8D1092E9001092EC011092EB0190936D
:100F9000EA018093E901898D811156C08E899D896E
:100FA000913A59F4813209F080C047E050E064E0A2
:100FB00071E080E00E94F30574C0913209F075C0C1
:100FC000833289F4888D90E0982F88272F89822B8F
:100FD000A0E0B0E08093000190930101A093020192
:100FE000B09303015EC0803269F48091E80082FF13
:100FF000FCCF67E084E091E00E94B0028BEF809329
:10100000E80006C0823209F04CC08F8980930B0142
:101010008091ED01882319F0EEEFFAE002C0E0E0E4
:10102000F8E08091040190910501A0910601B09132
:101030000701803B9440A105B10509F088C080916B
:101040000B0180FFA0C083C00E949904DC011296AE
:101050000D911C9113970115110539F1D801ED91EE
:10106000FC910190F081E02DBE016B5E7F4FC801C5
:101070000995811116C0F80100851185ECCF11305A
:10108000C1F0133091F48F89882309F455C0823060
:10109000E9F440E860E181EA91E00E94B605882326
:1010A00021F08EEF8093E80087C081E28093EB000F
:1010B00083C08B8D9C8D089711F41093FE01809155
:1010C000FE01811136C062EB71E038C0813029F435
:1010D00040E86BE085E991E0E0CF833031F70E9492
:1010E0009904DC011296ED90FC9013978E010F5F2E
:1010F0001F4F6801E114F10479F0D701ED91FC91E3
:101100000680F781E02DB801C7010995080F111D70
:10111000F701E084F184EECFD8011C92F601019032
:101120000020E9F73197BF016C197D0940E0C60145
:10113000B4CF64EC71E002C061E971E06115710542
:1011400009F4B3CFFB01449150E080E833CF0FB6F0
:10115000F894A89580916000886180936000109257
:1011600060000FBEA895EE3F2AE0F20739F08091AB
:10117000FE0A9091FF0A9183808393CF1092FF0A19
:101180001092FE0A8ECFEE3F8AE0F80731F08081A0
:1011900091819093FF0A8093FE0A87E797E79183F6
:1011A00080839BE088E10FB6F894A8958093600057
:1011B0000FBE9093600075CF6C960FB6F894DEBFAB
:1011C0000FBECDBFDF91CF91FF91EF91BF91AF9156
:1011D0009F918F917F916F915F914F913F912F914F
:1011E0001F910F91FF90EF90DF90CF900F900FBE67
:1011F0000F901F901895789484B5826084BD84B553
:10120000816084BD85B5826085BD85B5816085BD01
:1012100080916E00816080936E00109281008091B9
:101220008100826080938100809181008160809341
:101230008100809180008160809380008091910086
:1012400082608093910080919100816080939100F1
:10125000809190008160809390008091C1008460B3
:101260008093C1008091C10082608093C100809111
:10127000C10081608093C1008091C3008160809330
:10128000C3008091C00082608093C0008091C20042
:1012900081608093C20080917A00846080937A009C
:1012A00080917A00826080937A0080917A008160D8
:1012B00080937A0080917A00806880937A001092FF
:1012C000F1011092EE011092EF018091D700816040
:1012D0008093D70080EA8093D80089B5806189BD6A
:1012E00089B5826089BD09B400FEFDCF61E070E080
:1012F00080E090E00E94BD028091D8008F7C8061E8
:101300008093D8008091E000807F8093E0008091FE
:10131000E1008E7E8093E1008DE08093E200559A9B
:10132000209AEEEFFFE7859194918B3F9C4D19F445
:1013300081E08093ED0110928F0110928E01109246
:10134000D8011092D7011092B60181E08093B501C7
:101350001092900161E082E00E94410161E083E02F
:101360000E9441018091B9008E7F8093B9008091E5
:10137000B9008D7F8093B90088E48093B80085E43C
:101380008093BC0085EE91E09093DE018093DD01B7
:1013900084E08093DF0182EF91E09093DC01809301
:1013A000DB0184E090E00E94590B9093E10180936F
:1013B000E001E1E3F1E02491E2E1F1E084918823AE
:1013C00099F090E0880F991FFC01E950FF4FA5911B
:1013D000B491FC01E751FF4F859194918FB7F89438
:1013E000EC91E22BEC938FBFE3E4F1E0E491809188
:1013F0007B00E3FB992790F9C92FA0E0DA2F75E075
:10140000CC0FDD1F7A95E1F78F7DC82BC0937B0051
:10141000E770E064E0937C0080917A0080648093C0
:101420007A0080917A0086FDFCCF609178008091EF
:10143000790070E0782B072E000C880B990B611552
:1014400071058105910511F00E94DE0C35E0832EB7
:10145000912CA12CB12C49E0242E02E911E054E694
:10146000D52E60E0E62E60E0F62ECC24C39482E018
:10147000382E44244A9495EE592E25EC722E0E9463
:10148000D90CA50194010E94E70C7093E6016093CA
:10149000E5010E94D90CA50194010E94E70C70930C
:1014A000E8016093E7016090DF01C092DA012092C9
:1014B000D9011092D8011092D7018091DB0190914F
:1014C000DC01DC01ED91FC910190F081E02D66E002
:1014D00009958091DB019091DC01DC01ED91FC919B
:1014E0000190F081E02D65E809958091DB019091F4
:1014F000DC01DC01ED91FC910190F081E02D609127
:10150000DF010995C0E0D0E02091DF0130E080915B
:10151000DB019091DC01C217D3078CF4E091DD016F
:10152000F091DE01EC0FFD1F60816626DC01ED917C
:10153000FC910190F081E02D09952196E5CFDC0129
:10154000ED91FC910190F081E02D662D099590912F
:10155000D7018091D901913208F042C02091B601A3
:101560002111FCCF3092B601C092B5014092B40176
:101570001092B3019093B201A7EBB1E0E2E9F1E080
:101580002E2F201B291718F42D912193F9CF10929B
:10159000910190919101880F892B80939101809105
:1015A0009001813069F410929001809191018093B3
:1015B000BB008091BC0083FDF8CF7092BC0002C0DC
:1015C0005092BC008091B6018230E1F38091B40169
:1015D0008F3F31F08091B401803211F08091B401DD
:1015E0001092D8011092D7011092DA01C091E50152
:1015F000D091E6011C161D0644F561E08DE00E94C5
:1016000041018091E7019091E801D89EB001D99EF7
:10161000700D1124072E000C880B990B0E94BD023F
:1016200060E08DE00E9441018091E7019091E80126
:10163000D89EB001D99E700D1124072E000C880B86
:10164000990B0E94BD022197D5CF68E873E180E035
:1016500090E00E94BD02E114F10409F410CF0E9451
:10166000000005CFECE0F2E01382128288EE93E0F6
:10167000A0E0B0E084839583A683B78321E231E0C4
:10168000318320832FEF3FEF35872487E2EFF1E0AE
:101690001382128284839583A683B78381E391E0CA
:1016A000918380830895EE0FFF1F0590F491E02D44
:1016B0000994CF93DF938230910510F482E090E09B
:1016C000E0915E02F0915F0220E030E0C0E0D0E007
:1016D000309711F14081518148175907C0F04817E0
:1016E000590761F482819381209719F09B838A8343
:1016F0002BC090935F0280935E0226C021153105B6
:1017000019F04217530718F49A01BE01DF01EF01E7
:101710000280F381E02DDCCF2115310509F1281B72
:10172000390B2430310590F412968D919C911397CA
:101730006115710521F0FB019383828304C09093AE
:101740005F0280935E02FD01329644C0FD01E20F0C
:10175000F31F81939193225031092D933C933AC00A
:1017600020915C0230915D02232B41F420910E0107
:1017700030910F0130935D0220935C0220910C01A7
:1017800030910D012115310541F42DB73EB740913F
:10179000100150911101241B350BE0915C02F09176
:1017A0005D02E217F307A0F42E1B3F0B2817390741
:1017B00078F0AC014E5F5F4F2417350748F04E0FAD
:1017C0005F1F50935D0240935C028193919302C02E
:1017D000E0E0F0E0CF01DF91CF9108950F931F93E8
:1017E000CF93DF93009709F48CC0FC0132971382EA
:1017F000128200915E0210915F020115110581F4C1
:1018000020813181820F931F20915C0230915D0213
:101810002817390779F5F0935D02E0935C0271C0F7
:10182000D80140E050E0AE17BF0750F412962D915A
:101830003C911397AD012115310509F1D901F3CF81
:101840009D01DA013383228360817181860F971FA6
:101850008217930769F4EC0128813981260F371F1D
:101860002E5F3F4F318320838A819B8193838283C4
:10187000452B29F4F0935F02E0935E0242C0139679
:10188000FC93EE931297ED01499159919E01240F1B
:10189000351FE217F30771F480819181840F951F42
:1018A000029611969C938E938281938113969C93BA
:1018B0008E931297E0E0F0E0D80112968D919C9102
:1018C0001397009719F0F8018C01F6CF8D919C9138
:1018D00098012E5F3F4F820F931F20915C02309141
:1018E0005D022817390769F4309729F410925F02D6
:1018F00010925E0202C01382128210935D02009366
:101900005C02DF91CF911F910F91089581E090E0EB
:10191000F8940C944A0D8F929F92AF92BF92CF92FF
:10192000DF92EF92FF92CF93DF93EC016881798190
:101930008A819B81611571058105910521F464E21D
:1019400079ED8BE597E02DE133EF41E050E00E9427
:10195000E70C49015A019B01AC01A7EAB1E40E94DE
:10196000060D6B017C01ACEEB4EFA50194010E9461
:10197000140DDC01CB018C0D9D1DAE1DBF1DB7FFED
:1019800003C00197A109B04888839983AA83BB83C8
:10199000BC01CD019F77DF91CF91FF90EF90DF9059
:1019A000CF90BF90AF909F908F9008950E948B0C26
:1019B000089582E191E00E948B0C089560931201DA
:1019C0007093130180931401909315010895052ECF
:1019D00097FB1EF400940E94FE0C57FD07D00E9456
:1019E000190D07FC03D04EF40C94FE0C5095409555
:1019F000309521953F4F4F4F5F4F089590958095BB
:101A0000709561957F4F8F4F9F4F08950E943B0DBA
:101A1000A59F900DB49F900DA49F800D911D112442
:101A20000895B7FF0C94060D0E94060D821B930BC0
:101A30000895A1E21A2EAA1BBB1BFD010DC0AA1F0F
:101A4000BB1FEE1FFF1FA217B307E407F50720F027
:101A5000A21BB30BE40BF50B661F771F881F991FA2
:101A60001A9469F760957095809590959B01AC01EB
:101A7000BD01CF010895A29FB001B39FC001A39FF4
:101A8000700D811D1124911DB29F700D811D1124B7
:081A9000911D0895F894FFCFA9
:101A9800FFFFFFFF00E100000000000000006002FF
:101AA80080000100000000C18081000000000000EB
:101AB80000AD042A051005CE04EC04C304000000A0
:0E1AC800005102210219020A02FC01FB01007A
:00000001FF
